{
  "_format": "hh-sol-artifact-1",
  "contractName": "OpenEditionNFT",
  "sourceName": "contracts/OpenEditionNFT.sol",
  "abi": [
    {
      "inputs": [
        {
          "internalType": "string",
          "name": "name",
          "type": "string"
        },
        {
          "internalType": "string",
          "name": "symbol",
          "type": "string"
        },
        {
          "internalType": "string",
          "name": "baseURI",
          "type": "string"
        }
      ],
      "stateMutability": "nonpayable",
      "type": "constructor"
    },
    {
      "inputs": [
        {
          "internalType": "address",
          "name": "sender",
          "type": "address"
        },
        {
          "internalType": "uint256",
          "name": "tokenId",
          "type": "uint256"
        },
        {
          "internalType": "address",
          "name": "owner",
          "type": "address"
        }
      ],
      "name": "ERC721IncorrectOwner",
      "type": "error"
    },
    {
      "inputs": [
        {
          "internalType": "address",
          "name": "operator",
          "type": "address"
        },
        {
          "internalType": "uint256",
          "name": "tokenId",
          "type": "uint256"
        }
      ],
      "name": "ERC721InsufficientApproval",
      "type": "error"
    },
    {
      "inputs": [
        {
          "internalType": "address",
          "name": "approver",
          "type": "address"
        }
      ],
      "name": "ERC721InvalidApprover",
      "type": "error"
    },
    {
      "inputs": [
        {
          "internalType": "address",
          "name": "operator",
          "type": "address"
        }
      ],
      "name": "ERC721InvalidOperator",
      "type": "error"
    },
    {
      "inputs": [
        {
          "internalType": "address",
          "name": "owner",
          "type": "address"
        }
      ],
      "name": "ERC721InvalidOwner",
      "type": "error"
    },
    {
      "inputs": [
        {
          "internalType": "address",
          "name": "receiver",
          "type": "address"
        }
      ],
      "name": "ERC721InvalidReceiver",
      "type": "error"
    },
    {
      "inputs": [
        {
          "internalType": "address",
          "name": "sender",
          "type": "address"
        }
      ],
      "name": "ERC721InvalidSender",
      "type": "error"
    },
    {
      "inputs": [
        {
          "internalType": "uint256",
          "name": "tokenId",
          "type": "uint256"
        }
      ],
      "name": "ERC721NonexistentToken",
      "type": "error"
    },
    {
      "inputs": [
        {
          "internalType": "address",
          "name": "owner",
          "type": "address"
        }
      ],
      "name": "OwnableInvalidOwner",
      "type": "error"
    },
    {
      "inputs": [
        {
          "internalType": "address",
          "name": "account",
          "type": "address"
        }
      ],
      "name": "OwnableUnauthorizedAccount",
      "type": "error"
    },
    {
      "anonymous": false,
      "inputs": [
        {
          "indexed": true,
          "internalType": "address",
          "name": "owner",
          "type": "address"
        },
        {
          "indexed": true,
          "internalType": "address",
          "name": "approved",
          "type": "address"
        },
        {
          "indexed": true,
          "internalType": "uint256",
          "name": "tokenId",
          "type": "uint256"
        }
      ],
      "name": "Approval",
      "type": "event"
    },
    {
      "anonymous": false,
      "inputs": [
        {
          "indexed": true,
          "internalType": "address",
          "name": "owner",
          "type": "address"
        },
        {
          "indexed": true,
          "internalType": "address",
          "name": "operator",
          "type": "address"
        },
        {
          "indexed": false,
          "internalType": "bool",
          "name": "approved",
          "type": "bool"
        }
      ],
      "name": "ApprovalForAll",
      "type": "event"
    },
    {
      "anonymous": false,
      "inputs": [
        {
          "indexed": true,
          "internalType": "address",
          "name": "previousOwner",
          "type": "address"
        },
        {
          "indexed": true,
          "internalType": "address",
          "name": "newOwner",
          "type": "address"
        }
      ],
      "name": "OwnershipTransferred",
      "type": "event"
    },
    {
      "anonymous": false,
      "inputs": [
        {
          "indexed": true,
          "internalType": "address",
          "name": "from",
          "type": "address"
        },
        {
          "indexed": true,
          "internalType": "address",
          "name": "to",
          "type": "address"
        },
        {
          "indexed": true,
          "internalType": "uint256",
          "name": "tokenId",
          "type": "uint256"
        }
      ],
      "name": "Transfer",
      "type": "event"
    },
    {
      "inputs": [],
      "name": "MINT_PRICE",
      "outputs": [
        {
          "internalType": "uint256",
          "name": "",
          "type": "uint256"
        }
      ],
      "stateMutability": "view",
      "type": "function"
    },
    {
      "inputs": [
        {
          "internalType": "address",
          "name": "to",
          "type": "address"
        },
        {
          "internalType": "uint256",
          "name": "tokenId",
          "type": "uint256"
        }
      ],
      "name": "approve",
      "outputs": [],
      "stateMutability": "nonpayable",
      "type": "function"
    },
    {
      "inputs": [
        {
          "internalType": "address",
          "name": "owner",
          "type": "address"
        }
      ],
      "name": "balanceOf",
      "outputs": [
        {
          "internalType": "uint256",
          "name": "",
          "type": "uint256"
        }
      ],
      "stateMutability": "view",
      "type": "function"
    },
    {
      "inputs": [
        {
          "internalType": "uint256",
          "name": "tokenId",
          "type": "uint256"
        }
      ],
      "name": "getApproved",
      "outputs": [
        {
          "internalType": "address",
          "name": "",
          "type": "address"
        }
      ],
      "stateMutability": "view",
      "type": "function"
    },
    {
      "inputs": [
        {
          "internalType": "address",
          "name": "owner",
          "type": "address"
        },
        {
          "internalType": "address",
          "name": "operator",
          "type": "address"
        }
      ],
      "name": "isApprovedForAll",
      "outputs": [
        {
          "internalType": "bool",
          "name": "",
          "type": "bool"
        }
      ],
      "stateMutability": "view",
      "type": "function"
    },
    {
      "inputs": [],
      "name": "mint",
      "outputs": [],
      "stateMutability": "payable",
      "type": "function"
    },
    {
      "inputs": [
        {
          "internalType": "uint256",
          "name": "quantity",
          "type": "uint256"
        }
      ],
      "name": "mintMultiple",
      "outputs": [],
      "stateMutability": "payable",
      "type": "function"
    },
    {
      "inputs": [],
      "name": "mintingEnabled",
      "outputs": [
        {
          "internalType": "bool",
          "name": "",
          "type": "bool"
        }
      ],
      "stateMutability": "view",
      "type": "function"
    },
    {
      "inputs": [],
      "name": "name",
      "outputs": [
        {
          "internalType": "string",
          "name": "",
          "type": "string"
        }
      ],
      "stateMutability": "view",
      "type": "function"
    },
    {
      "inputs": [],
      "name": "owner",
      "outputs": [
        {
          "internalType": "address",
          "name": "",
          "type": "address"
        }
      ],
      "stateMutability": "view",
      "type": "function"
    },
    {
      "inputs": [
        {
          "internalType": "uint256",
          "name": "tokenId",
          "type": "uint256"
        }
      ],
      "name": "ownerOf",
      "outputs": [
        {
          "internalType": "address",
          "name": "",
          "type": "address"
        }
      ],
      "stateMutability": "view",
      "type": "function"
    },
    {
      "inputs": [],
      "name": "renounceOwnership",
      "outputs": [],
      "stateMutability": "nonpayable",
      "type": "function"
    },
    {
      "inputs": [
        {
          "internalType": "address",
          "name": "from",
          "type": "address"
        },
        {
          "internalType": "address",
          "name": "to",
          "type": "address"
        },
        {
          "internalType": "uint256",
          "name": "tokenId",
          "type": "uint256"
        }
      ],
      "name": "safeTransferFrom",
      "outputs": [],
      "stateMutability": "nonpayable",
      "type": "function"
    },
    {
      "inputs": [
        {
          "internalType": "address",
          "name": "from",
          "type": "address"
        },
        {
          "internalType": "address",
          "name": "to",
          "type": "address"
        },
        {
          "internalType": "uint256",
          "name": "tokenId",
          "type": "uint256"
        },
        {
          "internalType": "bytes",
          "name": "data",
          "type": "bytes"
        }
      ],
      "name": "safeTransferFrom",
      "outputs": [],
      "stateMutability": "nonpayable",
      "type": "function"
    },
    {
      "inputs": [
        {
          "internalType": "address",
          "name": "operator",
          "type": "address"
        },
        {
          "internalType": "bool",
          "name": "approved",
          "type": "bool"
        }
      ],
      "name": "setApprovalForAll",
      "outputs": [],
      "stateMutability": "nonpayable",
      "type": "function"
    },
    {
      "inputs": [
        {
          "internalType": "string",
          "name": "baseURI",
          "type": "string"
        }
      ],
      "name": "setBaseURI",
      "outputs": [],
      "stateMutability": "nonpayable",
      "type": "function"
    },
    {
      "inputs": [
        {
          "internalType": "bytes4",
          "name": "interfaceId",
          "type": "bytes4"
        }
      ],
      "name": "supportsInterface",
      "outputs": [
        {
          "internalType": "bool",
          "name": "",
          "type": "bool"
        }
      ],
      "stateMutability": "view",
      "type": "function"
    },
    {
      "inputs": [],
      "name": "symbol",
      "outputs": [
        {
          "internalType": "string",
          "name": "",
          "type": "string"
        }
      ],
      "stateMutability": "view",
      "type": "function"
    },
    {
      "inputs": [],
      "name": "toggleMinting",
      "outputs": [],
      "stateMutability": "nonpayable",
      "type": "function"
    },
    {
      "inputs": [
        {
          "internalType": "uint256",
          "name": "tokenId",
          "type": "uint256"
        }
      ],
      "name": "tokenURI",
      "outputs": [
        {
          "internalType": "string",
          "name": "",
          "type": "string"
        }
      ],
      "stateMutability": "view",
      "type": "function"
    },
    {
      "inputs": [],
      "name": "totalSupply",
      "outputs": [
        {
          "internalType": "uint256",
          "name": "",
          "type": "uint256"
        }
      ],
      "stateMutability": "view",
      "type": "function"
    },
    {
      "inputs": [
        {
          "internalType": "address",
          "name": "from",
          "type": "address"
        },
        {
          "internalType": "address",
          "name": "to",
          "type": "address"
        },
        {
          "internalType": "uint256",
          "name": "tokenId",
          "type": "uint256"
        }
      ],
      "name": "transferFrom",
      "outputs": [],
      "stateMutability": "nonpayable",
      "type": "function"
    },
    {
      "inputs": [
        {
          "internalType": "address",
          "name": "newOwner",
          "type": "address"
        }
      ],
      "name": "transferOwnership",
      "outputs": [],
      "stateMutability": "nonpayable",
      "type": "function"
    },
    {
      "inputs": [],
      "name": "withdraw",
      "outputs": [],
      "stateMutability": "nonpayable",
      "type": "function"
    }
  ],
  "bytecode": "0x608060405260016007556001600960006101000a81548160ff0219169083151502179055503480156200003157600080fd5b50604051620030f5380380620030f583398181016040528101906200005791906200037b565b33838381600090816200006b91906200067f565b5080600190816200007d91906200067f565b505050600073ffffffffffffffffffffffffffffffffffffffff168173ffffffffffffffffffffffffffffffffffffffff1603620000f55760006040517f1e4fbdf7000000000000000000000000000000000000000000000000000000008152600401620000ec9190620007ab565b60405180910390fd5b62000106816200012260201b60201c565b5080600890816200011891906200067f565b50505050620007c8565b6000600660009054906101000a900473ffffffffffffffffffffffffffffffffffffffff16905081600660006101000a81548173ffffffffffffffffffffffffffffffffffffffff021916908373ffffffffffffffffffffffffffffffffffffffff1602179055508173ffffffffffffffffffffffffffffffffffffffff168173ffffffffffffffffffffffffffffffffffffffff167f8be0079c531659141344cd1fd0a4f28419497f9722a3daafe3b4186f6b6457e060405160405180910390a35050565b6000604051905090565b600080fd5b600080fd5b600080fd5b600080fd5b6000601f19601f8301169050919050565b7f4e487b7100000000000000000000000000000000000000000000000000000000600052604160045260246000fd5b620002518262000206565b810181811067ffffffffffffffff8211171562000273576200027262000217565b5b80604052505050565b600062000288620001e8565b905062000296828262000246565b919050565b600067ffffffffffffffff821115620002b957620002b862000217565b5b620002c48262000206565b9050602081019050919050565b60005b83811015620002f1578082015181840152602081019050620002d4565b60008484015250505050565b6000620003146200030e846200029b565b6200027c565b90508281526020810184848401111562000333576200033262000201565b5b62000340848285620002d1565b509392505050565b600082601f83011262000360576200035f620001fc565b5b815162000372848260208601620002fd565b91505092915050565b600080600060608486031215620003975762000396620001f2565b5b600084015167ffffffffffffffff811115620003b857620003b7620001f7565b5b620003c68682870162000348565b935050602084015167ffffffffffffffff811115620003ea57620003e9620001f7565b5b620003f88682870162000348565b925050604084015167ffffffffffffffff8111156200041c576200041b620001f7565b5b6200042a8682870162000348565b9150509250925092565b600081519050919050565b7f4e487b7100000000000000000000000000000000000000000000000000000000600052602260045260246000fd5b600060028204905060018216806200048757607f821691505b6020821081036200049d576200049c6200043f565b5b50919050565b60008190508160005260206000209050919050565b60006020601f8301049050919050565b600082821b905092915050565b600060088302620005077fffffffffffffffffffffffffffffffffffffffffffffffffffffffffffffffff82620004c8565b620005138683620004c8565b95508019841693508086168417925050509392505050565b6000819050919050565b6000819050919050565b6000620005606200055a62000554846200052b565b62000535565b6200052b565b9050919050565b6000819050919050565b6200057c836200053f565b620005946200058b8262000567565b848454620004d5565b825550505050565b600090565b620005ab6200059c565b620005b881848462000571565b505050565b5b81811015620005e057620005d4600082620005a1565b600181019050620005be565b5050565b601f8211156200062f57620005f981620004a3565b6200060484620004b8565b8101602085101562000614578190505b6200062c6200062385620004b8565b830182620005bd565b50505b505050565b600082821c905092915050565b6000620006546000198460080262000634565b1980831691505092915050565b60006200066f838362000641565b9150826002028217905092915050565b6200068a8262000434565b67ffffffffffffffff811115620006a657620006a562000217565b5b620006b282546200046e565b620006bf828285620005e4565b600060209050601f831160018114620006f75760008415620006e2578287015190505b620006ee858262000661565b8655506200075e565b601f1984166200070786620004a3565b60005b8281101562000731578489015182556001820191506020850194506020810190506200070a565b868310156200075157848901516200074d601f89168262000641565b8355505b6001600288020188555050505b505050505050565b600073ffffffffffffffffffffffffffffffffffffffff82169050919050565b6000620007938262000766565b9050919050565b620007a58162000786565b82525050565b6000602082019050620007c260008301846200079a565b92915050565b61291d80620007d86000396000f3fe60806040526004361061014b5760003560e01c8063715018a6116100b6578063abbb5a551161006f578063abbb5a5514610437578063b88d4fde14610453578063c002d23d1461047c578063c87b56dd146104a7578063e985e9c5146104e4578063f2fde38b146105215761014b565b8063715018a61461035f5780637d55094d146103765780638da5cb5b1461038d57806395d89b41146103b85780639fd6db12146103e3578063a22cb4651461040e5761014b565b806323b872dd1161010857806323b872dd146102535780633ccfd60b1461027c57806342842e0e1461029357806355f804b3146102bc5780636352211e146102e557806370a08231146103225761014b565b806301ffc9a71461015057806306fdde031461018d578063081812fc146101b8578063095ea7b3146101f55780631249c58b1461021e57806318160ddd14610228575b600080fd5b34801561015c57600080fd5b5061017760048036038101906101729190611bbd565b61054a565b6040516101849190611c05565b60405180910390f35b34801561019957600080fd5b506101a261062c565b6040516101af9190611cb0565b60405180910390f35b3480156101c457600080fd5b506101df60048036038101906101da9190611d08565b6106be565b6040516101ec9190611d76565b60405180910390f35b34801561020157600080fd5b5061021c60048036038101906102179190611dbd565b6106da565b005b6102266106f0565b005b34801561023457600080fd5b5061023d6107b1565b60405161024a9190611e0c565b60405180910390f35b34801561025f57600080fd5b5061027a60048036038101906102759190611e27565b6107c7565b005b34801561028857600080fd5b506102916108c9565b005b34801561029f57600080fd5b506102ba60048036038101906102b59190611e27565b610927565b005b3480156102c857600080fd5b506102e360048036038101906102de9190611faf565b610947565b005b3480156102f157600080fd5b5061030c60048036038101906103079190611d08565b610962565b6040516103199190611d76565b60405180910390f35b34801561032e57600080fd5b5061034960048036038101906103449190611ff8565b610974565b6040516103569190611e0c565b60405180910390f35b34801561036b57600080fd5b50610374610a2e565b005b34801561038257600080fd5b5061038b610a42565b005b34801561039957600080fd5b506103a2610a76565b6040516103af9190611d76565b60405180910390f35b3480156103c457600080fd5b506103cd610aa0565b6040516103da9190611cb0565b60405180910390f35b3480156103ef57600080fd5b506103f8610b32565b6040516104059190611c05565b60405180910390f35b34801561041a57600080fd5b5061043560048036038101906104309190612051565b610b45565b005b610451600480360381019061044c9190611d08565b610b5b565b005b34801561045f57600080fd5b5061047a60048036038101906104759190612132565b610c97565b005b34801561048857600080fd5b50610491610cbc565b60405161049e9190611e0c565b60405180910390f35b3480156104b357600080fd5b506104ce60048036038101906104c99190611d08565b610cc1565b6040516104db9190611cb0565b60405180910390f35b3480156104f057600080fd5b5061050b600480360381019061050691906121b5565b610da5565b6040516105189190611c05565b60405180910390f35b34801561052d57600080fd5b5061054860048036038101906105439190611ff8565b610e39565b005b60007f80ac58cd000000000000000000000000000000000000000000000000000000007bffffffffffffffffffffffffffffffffffffffffffffffffffffffff1916827bffffffffffffffffffffffffffffffffffffffffffffffffffffffff1916148061061557507f5b5e139f000000000000000000000000000000000000000000000000000000007bffffffffffffffffffffffffffffffffffffffffffffffffffffffff1916827bffffffffffffffffffffffffffffffffffffffffffffffffffffffff1916145b80610625575061062482610ebf565b5b9050919050565b60606000805461063b90612224565b80601f016020809104026020016040519081016040528092919081815260200182805461066790612224565b80156106b45780601f10610689576101008083540402835291602001916106b4565b820191906000526020600020905b81548152906001019060200180831161069757829003601f168201915b5050505050905090565b60006106c982610f29565b506106d382610fb1565b9050919050565b6106ec82826106e7610fee565b610ff6565b5050565b600960009054906101000a900460ff1661073f576040517f08c379a0000000000000000000000000000000000000000000000000000000008152600401610736906122a1565b60405180910390fd5b6000341015610783576040517f08c379a000000000000000000000000000000000000000000000000000000000815260040161077a9061230d565b60405180910390fd5b6000600754905060016007600082825461079d919061235c565b925050819055506107ae3382611008565b50565b600060016007546107c29190612390565b905090565b600073ffffffffffffffffffffffffffffffffffffffff168273ffffffffffffffffffffffffffffffffffffffff16036108395760006040517f64a0ae920000000000000000000000000000000000000000000000000000000081526004016108309190611d76565b60405180910390fd5b600061084d8383610848610fee565b611026565b90508373ffffffffffffffffffffffffffffffffffffffff168173ffffffffffffffffffffffffffffffffffffffff16146108c3578382826040517f64283d7b0000000000000000000000000000000000000000000000000000000081526004016108ba939291906123c4565b60405180910390fd5b50505050565b6108d1611240565b60004790506108de610a76565b73ffffffffffffffffffffffffffffffffffffffff166108fc829081150290604051600060405180830381858888f19350505050158015610923573d6000803e3d6000fd5b5050565b61094283838360405180602001604052806000815250610c97565b505050565b61094f611240565b806008908161095e91906125a7565b5050565b600061096d82610f29565b9050919050565b60008073ffffffffffffffffffffffffffffffffffffffff168273ffffffffffffffffffffffffffffffffffffffff16036109e75760006040517f89c62b640000000000000000000000000000000000000000000000000000000081526004016109de9190611d76565b60405180910390fd5b600360008373ffffffffffffffffffffffffffffffffffffffff1673ffffffffffffffffffffffffffffffffffffffff168152602001908152602001600020549050919050565b610a36611240565b610a4060006112c7565b565b610a4a611240565b600960009054906101000a900460ff1615600960006101000a81548160ff021916908315150217905550565b6000600660009054906101000a900473ffffffffffffffffffffffffffffffffffffffff16905090565b606060018054610aaf90612224565b80601f0160208091040260200160405190810160405280929190818152602001828054610adb90612224565b8015610b285780601f10610afd57610100808354040283529160200191610b28565b820191906000526020600020905b815481529060010190602001808311610b0b57829003601f168201915b5050505050905090565b600960009054906101000a900460ff1681565b610b57610b50610fee565b838361138d565b5050565b600960009054906101000a900460ff16610baa576040517f08c379a0000000000000000000000000000000000000000000000000000000008152600401610ba1906122a1565b60405180910390fd5b600081118015610bbb5750600a8111155b610bfa576040517f08c379a0000000000000000000000000000000000000000000000000000000008152600401610bf1906126c5565b60405180910390fd5b806000610c0791906126e5565b341015610c49576040517f08c379a0000000000000000000000000000000000000000000000000000000008152600401610c409061230d565b60405180910390fd5b60005b81811015610c935760006007549050600160076000828254610c6e919061235c565b92505081905550610c7f3382611008565b508080610c8b90612727565b915050610c4c565b5050565b610ca28484846107c7565b610cb6610cad610fee565b858585856114fc565b50505050565b600081565b6060600082118015610cd4575060075482105b610d13576040517f08c379a0000000000000000000000000000000000000000000000000000000008152600401610d0a906127bb565b60405180910390fd5b60088054610d2090612224565b80601f0160208091040260200160405190810160405280929190818152602001828054610d4c90612224565b8015610d995780601f10610d6e57610100808354040283529160200191610d99565b820191906000526020600020905b815481529060010190602001808311610d7c57829003601f168201915b50505050509050919050565b6000600560008473ffffffffffffffffffffffffffffffffffffffff1673ffffffffffffffffffffffffffffffffffffffff16815260200190815260200160002060008373ffffffffffffffffffffffffffffffffffffffff1673ffffffffffffffffffffffffffffffffffffffff16815260200190815260200160002060009054906101000a900460ff16905092915050565b610e41611240565b600073ffffffffffffffffffffffffffffffffffffffff168173ffffffffffffffffffffffffffffffffffffffff1603610eb35760006040517f1e4fbdf7000000000000000000000000000000000000000000000000000000008152600401610eaa9190611d76565b60405180910390fd5b610ebc816112c7565b50565b60007f01ffc9a7000000000000000000000000000000000000000000000000000000007bffffffffffffffffffffffffffffffffffffffffffffffffffffffff1916827bffffffffffffffffffffffffffffffffffffffffffffffffffffffff1916149050919050565b600080610f35836116ad565b9050600073ffffffffffffffffffffffffffffffffffffffff168173ffffffffffffffffffffffffffffffffffffffff1603610fa857826040517f7e273289000000000000000000000000000000000000000000000000000000008152600401610f9f9190611e0c565b60405180910390fd5b80915050919050565b60006004600083815260200190815260200160002060009054906101000a900473ffffffffffffffffffffffffffffffffffffffff169050919050565b600033905090565b61100383838360016116ea565b505050565b6110228282604051806020016040528060008152506118af565b5050565b600080611032846116ad565b9050600073ffffffffffffffffffffffffffffffffffffffff168373ffffffffffffffffffffffffffffffffffffffff1614611074576110738184866118d3565b5b600073ffffffffffffffffffffffffffffffffffffffff168173ffffffffffffffffffffffffffffffffffffffff1614611105576110b66000856000806116ea565b6001600360008373ffffffffffffffffffffffffffffffffffffffff1673ffffffffffffffffffffffffffffffffffffffff168152602001908152602001600020600082825403925050819055505b600073ffffffffffffffffffffffffffffffffffffffff168573ffffffffffffffffffffffffffffffffffffffff1614611188576001600360008773ffffffffffffffffffffffffffffffffffffffff1673ffffffffffffffffffffffffffffffffffffffff168152602001908152602001600020600082825401925050819055505b846002600086815260200190815260200160002060006101000a81548173ffffffffffffffffffffffffffffffffffffffff021916908373ffffffffffffffffffffffffffffffffffffffff160217905550838573ffffffffffffffffffffffffffffffffffffffff168273ffffffffffffffffffffffffffffffffffffffff167fddf252ad1be2c89b69c2b068fc378daa952ba7f163c4a11628f55a4df523b3ef60405160405180910390a4809150509392505050565b611248610fee565b73ffffffffffffffffffffffffffffffffffffffff16611266610a76565b73ffffffffffffffffffffffffffffffffffffffff16146112c557611289610fee565b6040517f118cdaa70000000000000000000000000000000000000000000000000000000081526004016112bc9190611d76565b60405180910390fd5b565b6000600660009054906101000a900473ffffffffffffffffffffffffffffffffffffffff16905081600660006101000a81548173ffffffffffffffffffffffffffffffffffffffff021916908373ffffffffffffffffffffffffffffffffffffffff1602179055508173ffffffffffffffffffffffffffffffffffffffff168173ffffffffffffffffffffffffffffffffffffffff167f8be0079c531659141344cd1fd0a4f28419497f9722a3daafe3b4186f6b6457e060405160405180910390a35050565b600073ffffffffffffffffffffffffffffffffffffffff168273ffffffffffffffffffffffffffffffffffffffff16036113fe57816040517f5b08ba180000000000000000000000000000000000000000000000000000000081526004016113f59190611d76565b60405180910390fd5b80600560008573ffffffffffffffffffffffffffffffffffffffff1673ffffffffffffffffffffffffffffffffffffffff16815260200190815260200160002060008473ffffffffffffffffffffffffffffffffffffffff1673ffffffffffffffffffffffffffffffffffffffff16815260200190815260200160002060006101000a81548160ff0219169083151502179055508173ffffffffffffffffffffffffffffffffffffffff168373ffffffffffffffffffffffffffffffffffffffff167f17307eab39ab6107e8899845ad3d59bd9653f200f220920489ca2b5937696c31836040516114ef9190611c05565b60405180910390a3505050565b60008373ffffffffffffffffffffffffffffffffffffffff163b11156116a6578273ffffffffffffffffffffffffffffffffffffffff1663150b7a02868685856040518563ffffffff1660e01b815260040161155b9493929190612830565b6020604051808303816000875af192505050801561159757506040513d601f19601f820116820180604052508101906115949190612891565b60015b61161b573d80600081146115c7576040519150601f19603f3d011682016040523d82523d6000602084013e6115cc565b606091505b50600081510361161357836040517f64a0ae9200000000000000000000000000000000000000000000000000000000815260040161160a9190611d76565b60405180910390fd5b805181602001fd5b63150b7a0260e01b7bffffffffffffffffffffffffffffffffffffffffffffffffffffffff1916817bffffffffffffffffffffffffffffffffffffffffffffffffffffffff1916146116a457836040517f64a0ae9200000000000000000000000000000000000000000000000000000000815260040161169b9190611d76565b60405180910390fd5b505b5050505050565b60006002600083815260200190815260200160002060009054906101000a900473ffffffffffffffffffffffffffffffffffffffff169050919050565b80806117235750600073ffffffffffffffffffffffffffffffffffffffff168273ffffffffffffffffffffffffffffffffffffffff1614155b1561185757600061173384610f29565b9050600073ffffffffffffffffffffffffffffffffffffffff168373ffffffffffffffffffffffffffffffffffffffff161415801561179e57508273ffffffffffffffffffffffffffffffffffffffff168173ffffffffffffffffffffffffffffffffffffffff1614155b80156117b157506117af8184610da5565b155b156117f357826040517fa9fbf51f0000000000000000000000000000000000000000000000000000000081526004016117ea9190611d76565b60405180910390fd5b811561185557838573ffffffffffffffffffffffffffffffffffffffff168273ffffffffffffffffffffffffffffffffffffffff167f8c5be1e5ebec7d5bd14f71427d1e84f3dd0314c0f7b2291e5b200ac8c7c3b92560405160405180910390a45b505b836004600085815260200190815260200160002060006101000a81548173ffffffffffffffffffffffffffffffffffffffff021916908373ffffffffffffffffffffffffffffffffffffffff16021790555050505050565b6118b98383611997565b6118ce6118c4610fee565b60008585856114fc565b505050565b6118de838383611a90565b61199257600073ffffffffffffffffffffffffffffffffffffffff168373ffffffffffffffffffffffffffffffffffffffff160361195357806040517f7e27328900000000000000000000000000000000000000000000000000000000815260040161194a9190611e0c565b60405180910390fd5b81816040517f177e802f0000000000000000000000000000000000000000000000000000000081526004016119899291906128be565b60405180910390fd5b505050565b600073ffffffffffffffffffffffffffffffffffffffff168273ffffffffffffffffffffffffffffffffffffffff1603611a095760006040517f64a0ae92000000000000000000000000000000000000000000000000000000008152600401611a009190611d76565b60405180910390fd5b6000611a1783836000611026565b9050600073ffffffffffffffffffffffffffffffffffffffff168173ffffffffffffffffffffffffffffffffffffffff1614611a8b5760006040517f73c6ac6e000000000000000000000000000000000000000000000000000000008152600401611a829190611d76565b60405180910390fd5b505050565b60008073ffffffffffffffffffffffffffffffffffffffff168373ffffffffffffffffffffffffffffffffffffffff1614158015611b4857508273ffffffffffffffffffffffffffffffffffffffff168473ffffffffffffffffffffffffffffffffffffffff161480611b095750611b088484610da5565b5b80611b4757508273ffffffffffffffffffffffffffffffffffffffff16611b2f83610fb1565b73ffffffffffffffffffffffffffffffffffffffff16145b5b90509392505050565b6000604051905090565b600080fd5b600080fd5b60007fffffffff0000000000000000000000000000000000000000000000000000000082169050919050565b611b9a81611b65565b8114611ba557600080fd5b50565b600081359050611bb781611b91565b92915050565b600060208284031215611bd357611bd2611b5b565b5b6000611be184828501611ba8565b91505092915050565b60008115159050919050565b611bff81611bea565b82525050565b6000602082019050611c1a6000830184611bf6565b92915050565b600081519050919050565b600082825260208201905092915050565b60005b83811015611c5a578082015181840152602081019050611c3f565b60008484015250505050565b6000601f19601f8301169050919050565b6000611c8282611c20565b611c8c8185611c2b565b9350611c9c818560208601611c3c565b611ca581611c66565b840191505092915050565b60006020820190508181036000830152611cca8184611c77565b905092915050565b6000819050919050565b611ce581611cd2565b8114611cf057600080fd5b50565b600081359050611d0281611cdc565b92915050565b600060208284031215611d1e57611d1d611b5b565b5b6000611d2c84828501611cf3565b91505092915050565b600073ffffffffffffffffffffffffffffffffffffffff82169050919050565b6000611d6082611d35565b9050919050565b611d7081611d55565b82525050565b6000602082019050611d8b6000830184611d67565b92915050565b611d9a81611d55565b8114611da557600080fd5b50565b600081359050611db781611d91565b92915050565b60008060408385031215611dd457611dd3611b5b565b5b6000611de285828601611da8565b9250506020611df385828601611cf3565b9150509250929050565b611e0681611cd2565b82525050565b6000602082019050611e216000830184611dfd565b92915050565b600080600060608486031215611e4057611e3f611b5b565b5b6000611e4e86828701611da8565b9350506020611e5f86828701611da8565b9250506040611e7086828701611cf3565b9150509250925092565b600080fd5b600080fd5b7f4e487b7100000000000000000000000000000000000000000000000000000000600052604160045260246000fd5b611ebc82611c66565b810181811067ffffffffffffffff82111715611edb57611eda611e84565b5b80604052505050565b6000611eee611b51565b9050611efa8282611eb3565b919050565b600067ffffffffffffffff821115611f1a57611f19611e84565b5b611f2382611c66565b9050602081019050919050565b82818337600083830152505050565b6000611f52611f4d84611eff565b611ee4565b905082815260208101848484011115611f6e57611f6d611e7f565b5b611f79848285611f30565b509392505050565b600082601f830112611f9657611f95611e7a565b5b8135611fa6848260208601611f3f565b91505092915050565b600060208284031215611fc557611fc4611b5b565b5b600082013567ffffffffffffffff811115611fe357611fe2611b60565b5b611fef84828501611f81565b91505092915050565b60006020828403121561200e5761200d611b5b565b5b600061201c84828501611da8565b91505092915050565b61202e81611bea565b811461203957600080fd5b50565b60008135905061204b81612025565b92915050565b6000806040838503121561206857612067611b5b565b5b600061207685828601611da8565b92505060206120878582860161203c565b9150509250929050565b600067ffffffffffffffff8211156120ac576120ab611e84565b5b6120b582611c66565b9050602081019050919050565b60006120d56120d084612091565b611ee4565b9050828152602081018484840111156120f1576120f0611e7f565b5b6120fc848285611f30565b509392505050565b600082601f83011261211957612118611e7a565b5b81356121298482602086016120c2565b91505092915050565b6000806000806080858703121561214c5761214b611b5b565b5b600061215a87828801611da8565b945050602061216b87828801611da8565b935050604061217c87828801611cf3565b925050606085013567ffffffffffffffff81111561219d5761219c611b60565b5b6121a987828801612104565b91505092959194509250565b600080604083850312156121cc576121cb611b5b565b5b60006121da85828601611da8565b92505060206121eb85828601611da8565b9150509250929050565b7f4e487b7100000000000000000000000000000000000000000000000000000000600052602260045260246000fd5b6000600282049050600182168061223c57607f821691505b60208210810361224f5761224e6121f5565b5b50919050565b7f4d696e74696e672069732064697361626c656400000000000000000000000000600082015250565b600061228b601383611c2b565b915061229682612255565b602082019050919050565b600060208201905081810360008301526122ba8161227e565b9050919050565b7f496e73756666696369656e74207061796d656e74000000000000000000000000600082015250565b60006122f7601483611c2b565b9150612302826122c1565b602082019050919050565b60006020820190508181036000830152612326816122ea565b9050919050565b7f4e487b7100000000000000000000000000000000000000000000000000000000600052601160045260246000fd5b600061236782611cd2565b915061237283611cd2565b925082820190508082111561238a5761238961232d565b5b92915050565b600061239b82611cd2565b91506123a683611cd2565b92508282039050818111156123be576123bd61232d565b5b92915050565b60006060820190506123d96000830186611d67565b6123e66020830185611dfd565b6123f36040830184611d67565b949350505050565b60008190508160005260206000209050919050565b60006020601f8301049050919050565b600082821b905092915050565b60006008830261245d7fffffffffffffffffffffffffffffffffffffffffffffffffffffffffffffffff82612420565b6124678683612420565b95508019841693508086168417925050509392505050565b6000819050919050565b60006124a461249f61249a84611cd2565b61247f565b611cd2565b9050919050565b6000819050919050565b6124be83612489565b6124d26124ca826124ab565b84845461242d565b825550505050565b600090565b6124e76124da565b6124f28184846124b5565b505050565b5b818110156125165761250b6000826124df565b6001810190506124f8565b5050565b601f82111561255b5761252c816123fb565b61253584612410565b81016020851015612544578190505b61255861255085612410565b8301826124f7565b50505b505050565b600082821c905092915050565b600061257e60001984600802612560565b1980831691505092915050565b6000612597838361256d565b9150826002028217905092915050565b6125b082611c20565b67ffffffffffffffff8111156125c9576125c8611e84565b5b6125d38254612224565b6125de82828561251a565b600060209050601f83116001811461261157600084156125ff578287015190505b612609858261258b565b865550612671565b601f19841661261f866123fb565b60005b8281101561264757848901518255600182019150602085019450602081019050612622565b868310156126645784890151612660601f89168261256d565b8355505b6001600288020188555050505b505050505050565b7f496e76616c6964207175616e7469747900000000000000000000000000000000600082015250565b60006126af601083611c2b565b91506126ba82612679565b602082019050919050565b600060208201905081810360008301526126de816126a2565b9050919050565b60006126f082611cd2565b91506126fb83611cd2565b925082820261270981611cd2565b915082820484148315176127205761271f61232d565b5b5092915050565b600061273282611cd2565b91507fffffffffffffffffffffffffffffffffffffffffffffffffffffffffffffffff82036127645761276361232d565b5b600182019050919050565b7f546f6b656e20646f6573206e6f74206578697374000000000000000000000000600082015250565b60006127a5601483611c2b565b91506127b08261276f565b602082019050919050565b600060208201905081810360008301526127d481612798565b9050919050565b600081519050919050565b600082825260208201905092915050565b6000612802826127db565b61280c81856127e6565b935061281c818560208601611c3c565b61282581611c66565b840191505092915050565b60006080820190506128456000830187611d67565b6128526020830186611d67565b61285f6040830185611dfd565b818103606083015261287181846127f7565b905095945050505050565b60008151905061288b81611b91565b92915050565b6000602082840312156128a7576128a6611b5b565b5b60006128b58482850161287c565b91505092915050565b60006040820190506128d36000830185611d67565b6128e06020830184611dfd565b939250505056fea264697066735822122033ae8501841db38722122e16e3aa5440d6128853c6b68a6aea85b66dfd62dac864736f6c63430008140033",
  "linkReferences": {},
  "deployedLinkReferences": {}
}